:020000040800F2
:100000006806002029020008730600086B06000835
:100010006F060008EB04000831080008000000002B
:10002000000000000000000000000000B906000809
:10003000D90500080000000075060008A90700089F
:10004000430200084302000843020008430200087C
:10005000430200084302000843020008430200086C
:10006000430200084302000843020008430200085C
:10007000430200084302000843020008430200084C
:10008000430200084302000843020008430200083C
:10009000430200084302000843020008430200082C
:1000A000430200084302000843020008430200081C
:1000B000430200084302000843020008430200080C
:1000C00043020008430200084302000843020008FC
:1000D00043020008430200084302000843020008EC
:1000E00043020008430200084302000843020008DC
:1000F00043020008430200084302000843020008CC
:1001000043020008430200084302000843020008BB
:1001100043020008430200084302000843020008AB
:10012000430200084302000843020008430200089B
:10013000430200084302000843020008430200088B
:10014000430200084302000843020008430200087B
:10015000430200084302000843020008430200086B
:10016000430200084302000843020008430200085B
:10017000430200084302000843020008430200084B
:10018000430200084302000800F002F800F03CF8C7
:100190000AA090E8000C82448344AAF10107DA45E2
:1001A00001D100F031F8AFF2090EBAE80F0013F0F8
:1001B000010F18BFFB1A43F0010318479C0600000B
:1001C000BC060000103A24BF78C878C1FAD852079C
:1001D00024BF30C830C144BF04680C6070470000C1
:1001E0000023002400250026103A28BF78C1FBD840
:1001F000520728BF30C148BF0B6070471FB500F0E1
:1002000025FB1FBD10B510BD00F031F81146FFF7FA
:10021000F5FF00F00FFB00F04FF803B4FFF7F2FF1B
:1002200003BC00F057F80000094880470948004720
:10023000FEE7FEE7FEE7FEE7FEE7FEE7FEE7FEE796
:10024000FEE7FEE704480549054A064B70470000F3
:10025000B107000889010008680000206806002036
:10026000680200206802002070477047704775469A
:1002700000F02CF8AE4605006946534620F0070012
:10028000854618B020B5FFF7DDFFBDE820404FF0F0
:1002900000064FF000074FF000084FF0000B21F070
:1002A0000701AC46ACE8C009ACE8C009ACE8C0093D
:1002B000ACE8C0098D46704710B50446AFF3008026
:1002C0002046BDE81040FFF7A8BF00000048704777
:1002D0000800002001491820ABBEFEE726000200FE
:1002E000704721B1826842F00102826003E08268B7
:1002F00022F00102826070470021084A1168084A12
:100300001140D0E900231A4383681A43C3681A4393
:100310001143044AC2F8041370470000042301404B
:10032000E030FCFF0020014000B58DB001210846FF
:1003300000F0A2F90121880200F0AEF9022001903C
:1003400003208DF8080000208DF80B0001A9144847
:1003500000F043F90020039004900590069003A854
:10036000FFF7CAFF002007908DF8200001208DF8CC
:100370002100002009900A900B9001208DF8300098
:1003800007A9084800F026F8002301221146054875
:1003900000F04AF801210348FFF7A3FF0DB000BDAC
:1003A000000002400022014021B1826842F48072C4
:1003B000826003E0826822F480728260704721B11B
:1003C000826842F40072826003E0826822F4007264
:1003D0008260704730B50246002000235068104C00
:1003E00020400D790C6844EA052420435060906851
:1003F0000C4C2040D1E903542C438D682C434D799B
:1004000044EA450420439060D06A20F470000C7DDB
:10041000641EE4B2234340EA0350D06230BD0000C2
:10042000FFFEFFFCFDF7FFC0F0B504460D460020BF
:100430000021092D11DDE068A5F10A0606EB46074B
:10044000072606FA07F18843A5F10A0606EB4606D9
:1004500003FA06F10843E0600CE0206905EB45076C
:10046000072606FA07F1884305EB450603FA06F16D
:1004700008432061072A0FDA606B561E06EB8607D9
:100480001F2606FA07F18843561E06EB860605FA74
:1004900006F10843606322E00D2A0FDA206BD61FB5
:1004A00006EB86071F2606FA07F18843D61F06EBE0
:1004B000860605FA06F10843206310E0E06AA2F11F
:1004C0000D0606EB86071F2606FA07F18843A2F100
:1004D0000D0606EB860605FA06F10843E062F0BD5C
:1004E000816841F080418160704700BFFEE721B123
:1004F000026842F00102026003E0026822F0010299
:100500000260704700B58FB00121880500F0B4F893
:100510004FF080600090174801901748029000202B
:100520000390012004900020059006904FF4006095
:100530000790800008904011099040020A90002026
:100540000B9001200C9000200D900E9069460B48F6
:1005500000F016F801210948FFF7C9FF01210548FD
:100560004C38FFF72CFF012102484C38FFF71CFFE5
:100570000FB000BD4C220140040000201064024076
:1005800010B500220268134B1A40CC680B68234355
:100590004C6923438C692343CC6923430C6A23436E
:1005A0004C6A23438C6A23434C6B23438C6B234359
:1005B0001A430260426922F00702D1E90B34234357
:1005C0001A4342610B6943604B6883608B68C36068
:1005D00010BD00003F801CF07047F0B50A460021B6
:1005E0000023002400BF3DE0012505FA01F3156852
:1005F00005EA03049C4234D105684F000326BE403F
:10060000B543056015794E00B54006683543056071
:100610001579012D02D01579022D16D185684F006C
:100620000326BE40B543856055794E00B5408668C7
:1006300035438560456801268E40B5434560456871
:1006400096798E40B6B235434560C5684F000326A3
:10065000BE40B543C560D5794E00B540C668354348
:10066000C560491C1029BFD3F0BD00BFFEE700BF25
:10067000FEE770477047000029B1064A126802433E
:10068000044B1A6004E0034A12688243014B1A606B
:10069000704700003038024029B1064A1268024310
:1006A000044B1A6004E0034A12688243014B1A604B
:1006B0007047000044380240704700000CB500202D
:1006C000019000903448006840F48030324908605E
:1006D00000BF3148006800F4003000900198401CD1
:1006E0000190009818B90198B0F5A04FF1D12A48AF
:1006F000006800F4003010B10120009001E00020FB
:1007000000900098012846D123484030006840F00E
:1007100080502149403108602048006840F4404042
:100720001E4908601C48083000681B4908310860F1
:100730000846006840F4004008600846006840F43D
:10074000A05008601648091F0860081F006840F0A4
:100750008070091F086000BF0F48006800F000703B
:100760000028F9D040F205700E4908600A480830A8
:10077000006820F003000849083108600846006856
:1007800040F00200086000BF03480830006800F035
:100790000C000828F8D10CBD003802400070004061
:1007A00008544007003C024010B500F035F810BD79
:1007B00010B51548006840F47000134908601348EC
:1007C000006840F001001149086000200F4908311D
:1007D00008600E4800680E4908400C4908600D4842
:1007E000091D0860081F006820F48020091F0860A8
:1007F000002006490C310860FFF760FF4FF00060F1
:1008000001498039086010BD88ED00E000380240E1
:10081000FFFFF6FE103000240448006820B10348B2
:100820000068401E01490860704700000000002079
:1008300000BFFEE7FFF778FDFFF764FE0248FFF711
:100840004FFE00BFFEE70000002201404FF0407065
:10085000E1EE100A70470000780800080000002050
:1008600008000000C40100088008000808000020FB
:1008700060060000E0010008000000000000000029
:040000050800018965
:00000001FF
