:020000040800F2
:10000000980600202902000879090008F90500086F
:1000100075090008E3020008290E0008000000002E
:10002000000000000000000000000000C50A0008F9
:1000300001040008000000007B090008F10B000823
:10004000430200084302000843020008430200087C
:10005000430200084302000843020008430200086C
:10006000430200084302000843020008430200085C
:10007000430200084302000843020008430200084C
:10008000430200084302000843020008430200083C
:10009000430200084302000843020008430200082C
:1000A000430200084302000843020008430200081C
:1000B000430200084302000843020008430200080C
:1000C00043020008430200084302000843020008FC
:1000D00043020008430200084302000843020008EC
:1000E00043020008430200084302000843020008DC
:1000F00043020008430200084302000843020008CC
:1001000043020008430200084302000843020008BB
:1001100043020008430200084302000843020008AB
:10012000430200084302000843020008430200089B
:10013000430200084302000843020008430200088B
:10014000430200084302000843020008430200087B
:10015000430200084302000843020008430200086B
:10016000430200084302000843020008430200085B
:10017000430200084302000843020008430200084B
:10018000430200084302000800F002F800F03CF8C7
:100190000AA090E8000C82448344AAF10107DA45E2
:1001A00001D100F031F8AFF2090EBAE80F0013F0F8
:1001B000010F18BFFB1A43F001031847D0110000CC
:1001C000F0110000103A24BF78C878C1FAD852075D
:1001D00024BF30C830C144BF04680C6070470000C1
:1001E0000023002400250026103A28BF78C1FBD840
:1001F000520728BF30C148BF0B6070471FB501F0E0
:10020000BAF81FBD10B510BD00F031F81146FFF768
:10021000F5FF00F00BFE00F04FF803B4FFF7F2FF1C
:1002200003BC00F057F80000094880470948004720
:10023000FEE7FEE7FEE7FEE7FEE7FEE7FEE7FEE796
:10024000FEE7FEE704480549054A064B70470000F3
:10025000F90B00088901000898000020980600208A
:10026000980200209802002070477047704775463A
:1002700000F02CF8AE4605006946534620F0070012
:10028000854618B020B5FFF7DDFFBDE820404FF0F0
:1002900000064FF000074FF000084FF0000B21F070
:1002A0000701AC46ACE8C009ACE8C009ACE8C0093D
:1002B000ACE8C0098D46704710B50446AFF3008026
:1002C0002046BDE81040FFF7A8BF00000048704777
:1002D0003400002001491820ABBEFEE726000200D2
:1002E000704700BFFEE7000070B5002520211348CD
:1002F00000F060FC00241CE02021104800F069FCA4
:10030000002220210D4800F0F0F8022000F070FDDE
:1003100020210A4800F04EFC2021084800F0DCF8BB
:1003200018B10120A0402843C5B23C2000F060FD78
:10033000641C082CE0DB284670BD0000000402406D
:1003400010B500240121022000F018FB20211048E4
:1003500000F03FFC002220210D4800F0C6F84FF4C9
:10036000F07000F045FD2021094800F023FC5020EA
:1003700000F03EFD2021064800F0AEF808B9012447
:1003800000E0FF244FF4C87000F032FD204610BD9D
:100390000004024070B505462021184800F019FC01
:1003A000002428E00120A040284098B120211348D3
:1003B00000F00FFC00222021104800F096F80120E8
:1003C00000F016FD20210D4800F0F4FB3C2000F069
:1003D0000FFD0FE02021094800F0FBFB0022202147
:1003E000064800F082F83C2000F002FD202103487E
:1003F00000F0E0FB641C082CD4DB70BD000402405C
:100400007047F0B50A4600210023002400BF3DE0FC
:10041000012505FA01F3156805EA03049C4234D16D
:1004200005684F000326BE40B543056015794E00B0
:10043000B5400668354305601579012D02D0157960
:10044000022D16D185684F000326BE40B543856056
:1004500055794E00B540866835438560456801266C
:100460008E40B5434560456896798E40B6B23543B7
:100470004560C5684F000326BE40B543C560D579C9
:100480004E00B540C6683543C560491C1029BFD32E
:10049000F0BDF0B5002300244D07ED0E02FA05F380
:1004A000CE1000F1200555F826504E07F70E0F2606
:1004B000BE40B543CF1000F1200646F82750CE10BD
:1004C00000F1200555F8265045EA0304CE1000F14E
:1004D000200545F82640F0BD0246002013690B4078
:1004E0000BB1012000E0002070470AB1018300E059
:1004F0004183704710B52DED048B82B0002402209B
:10050000124B1022B8210090114800F0ABF94FF4C3
:100510007A7000F0A5FB0D480478407840EA042486
:10052000204600F050FE41EC190B9FED0A0B53ECF6
:10053000102B00F0C3FC41EC180B00F017FE84B246
:10054000204602B0BDEC048B10BD0000300000203E
:1005500000540040333333333333F33F30B52DEDA4
:10056000068B81B0FFF7ECFE0546012000F078FB1A
:10057000CC20FFF70FFF4420FFF70CFF4FF448702B
:1005800000F06EFBFFF7DCFE0546012000F068FB83
:10059000CC20FFF7FFFEBE20FFF7FCFEFFF7A4FE16
:1005A0008DF80000FFF7A0FE8DF801009DF80140D6
:1005B0009DF8000040EA042400EE104AB8EE400A1C
:1005C00010EE100A00F066FE41EC1A0B9FED080BCE
:1005D00053EC102B00F072FC41EC190B00F03CFCCA
:1005E00008EE100AB0EE480A01B0BDEC068B30BD33
:1005F000000000000000304000BFFEE721B102888B
:1006000042F48062028004E002884FF6FF331A4011
:100610000280704770B502460024002500230020A8
:10062000958A138B1B0445EA030626F07F4404EAEF
:1006300001068E4201D1012000E0002070BD21B1F1
:10064000028842F00102028004E002884FF6FE7345
:100650001A4002807047000000B587B001210220D7
:1006600000F08CF90121022000F088F901214805F1
:1006700000F094F90121480500F0A0F900214FF4A1
:10068000001000F09BF902208DF8180001208DF871
:100690001A004020059002208DF8190000208DF8E6
:1006A0001B0005A91748FFF7ACFE042206211548D8
:1006B000FFF7EFFE042207211248FFF7EAFE802031
:1006C000059005A90F48FFF79CFE0020ADF8080033
:1006D0004BF6FF70ADF80A000020ADF80C004FF4A7
:1006E0008060ADF80E000001ADF8100006480190E2
:1006F00001A9064800F042F801210448FFF79FFFD6
:1007000007B000BD00040240A08601000054004074
:1007100021B1028842F48072028004E002884FF620
:10072000FF631A400280704721B1028842F40072D0
:10073000028004E002884FF6FF531A40028070479F
:100740000CB50246002000230193009300920B0F8A
:10075000019321F07F41019B1BB1009B1433009357
:1007600003E0090C009B18330093009B1B680B40AF
:100770000BB1012000E000200CBD00002DE9FF4777
:1007800004460D460026B1460427DFF8CC80A68833
:100790004FF6C0700640684600F020F9DDF808808A
:1007A0002E48B8FBF0F01FFA80F946EA0906A68049
:1007B00020884FF6FE7108402080002628492868CE
:1007C00088420CD828684000B8FBF0F087B2042FAC
:1007D00000DA04273E4309F10100208427E0E8887D
:1007E0004BF6FF71884206D1286800EB4000B8FB49
:1007F000F0F087B209E0286800EBC00101EB0010BF
:10080000B8FBF0F087B247F48047C7F30B0008B994
:1008100047F0010747F4004006434FF4967009FB88
:1008200000F04FF47A7190FBF1F0401C2084A68315
:10083000208840F00100208026884FF6F5300640E1
:10084000A8886989084306432680A889298908431E
:100850002081BDE8FF87000000127A0040420F00AF
:10086000A08601002DE9F0478046894615461E46C0
:10087000089C002714B90120BDE8F08700BF4FF4A1
:1008800000314046FFF75CFF0028F8D101214046C7
:10089000FFF7B4FE01214046FFF73AFF00BF2C49A5
:1008A0004046FFF7B7FE0028F9D0002249464046EF
:1008B00000F056F800BF27494046FFF7ABFE00287E
:1008C000F9D02946404600F053F800BF2149891C61
:1008D0004046FFF79FFE0028F8D001214046FFF771
:1008E00017FF00BF1A494046FFF794FE0028F9D0D1
:1008F00001224946404600F033F800BF1449491C24
:100900004046FFF787FE0028F8D019E0012C07D1F8
:1009100000214046FFF772FE01214046FFF704FF29
:1009200000BF0B493F314046FFF774FE0028F8D066
:10093000404600F011F8F055781CC7B2601E84B232
:10094000002CE3D101214046FFF758FE002093E739
:1009500001000300820007000146088AC0B2704708
:1009600012B141F0010101E001F0FE010182704786
:100970000182704700BFFEE77047704729B1064A01
:1009800012680243044B1A6004E0034A126882436F
:10099000014B1A60704700003038024029B1064A06
:1009A00012680243044B1A6004E0034A126882434F
:1009B000014B1A60704700004038024029B1064AD6
:1009C00012680243044B1A6004E0034A126882432F
:1009D000014B1A607047000020380240F0B500213A
:1009E00000220024022500260223324F3F6807F030
:1009F0000C0121B1042905D0082937D105E02E4F7B
:100A0000076036E02D4F076033E02A4F3F1F3F68F5
:100A1000C7F38056274F3F1F3F6807F03F036EB173
:100A2000264FB7FBF3F7DFF88CC0ACF1040CDCF811
:100A300000C0CCF3881C07FB0CF40CE01E4FB7FB86
:100A4000F3F7DFF870C0ACF1040CDCF800C0CCF3B5
:100A5000881C07FB0CF4174F3F1F3F68C7F3014783
:100A60007F1C7D00B4FBF5F7076002E0124F0760C2
:100A700000BF00BF0F4F3F6807F0F0010909104F9A
:100A80007A5C0768D74047600A4F3F6807F4E05137
:100A9000890A0B4F7A5C4768D7408760054F3F68EB
:100AA00007F46041490B064F7A5C4768D740C7603E
:100AB000F0BD0000083802400024F40000127A0063
:100AC0001C000020704700000CB500200190009031
:100AD0003448006840F480303249086000BF314833
:100AE000006800F4003000900198401C01900098CC
:100AF00018B90198B0F5A04FF1D12A48006800F468
:100B0000003010B10120009001E00020009000981A
:100B1000012846D123484030006840F080502149E8
:100B2000403108602048006840F440401E49086099
:100B30001C48083000681B490831086008460068F6
:100B400040F4004008600846006840F4A050086087
:100B50001648091F0860081F006840F08070091FD0
:100B6000086000BF0F48006800F000700028F9D04E
:100B700040F205700E4908600A480830006820F00D
:100B800003000849083108600846006840F0020088
:100B9000086000BF03480830006800F00C00082817
:100BA000F8D10CBD003802400070004008544007E6
:100BB000003C02407CB505460C4600208DF8040040
:100BC000009401208DF8070069462846FFF719FCBC
:100BD0007CBD7CB505460C4601208DF804000094D0
:100BE00000208DF8050069462846FFF70AFC7CBD09
:100BF00010B500F00DF910BD10B51548006840F4AF
:100C00007000134908601348006840F00100114962
:100C1000086000200F49083108600E4800680E493E
:100C200008400C4908600D48091D0860081F00684D
:100C300020F48020091F0860002006490C3108605C
:100C4000FFF742FF4FF0006001498039086010BD96
:100C500088ED00E000380240FFFFF6FE103000246F
:100C60000349086000BF024909680029FBD17047A9
:100C70002C00002030B5254800684FF47A72B0FB94
:100C8000F2F1481EB0F1807F01D301201BE0481E25
:100C90004FF0E022506150170F22002807DA1307A7
:100CA0001D0E1B4B00F00F04241F1D5503E01307FE
:100CB0001C0E184B1C5400BF00204FF0E022906126
:100CC000072010610020F8B100BF00BF00BF00BFC7
:100CD00000BFBFF34F8F00BF00BF00BF0C480C38F0
:100CE000006800F4E0600C490843001D08490C3915
:100CF000086000BF00BF00BFBFF34F8F00BF00BF41
:100D000000BF00E000BFFDE730BD00000000002094
:100D100018ED00E000E400E00000FA050EB5012146
:100D20001020FFF73BFE4FF6FF7001905320ADF807
:100D300000006946034800F019F80121014800F05D
:100D400003F80EBD0010004021B1028842F00102FC
:100D5000028004E002884FF6FE731A40028070475A
:100D60000146486A704741627047000000220288CD
:100D7000184B98420ED0184B98420BD0B0F1804FD0
:100D800008D0164B984205D0154B984202D0154B0F
:100D9000984204D14FF68F731A404B881A43124B76
:100DA000984207D0114B984204D04FF6FF431A40A7
:100DB0000B891A4302804B68C3620B880385054B7D
:100DC000984202D0044B984201D18B7A03860123CA
:100DD000838270470000014000040140000400408D
:100DE00000080040000C00400010004000140040CB
:100DF00010B5044600210548FFF7B5FF00BF0348C2
:100E0000FFF7AEFFA042FAD310BD00000010004073
:100E10000448006820B103480068401E014908608A
:100E2000704700002C00002000BFFEE7FFF722FF04
:100E3000FFF712FCFFF772FF08E0FFF75BFB0449C6
:100E40000880FFF78BFB034880ED000AF5E7000000
:100E5000140000201800002021F00042A2F160528E
:100E6000B2F5801F01F0004328BFD2F17F6C0BD98F
:100E70005FEA001C43EAC20242EB507018BF7047A1
:100E800028BF20F001007047B2F5801FBCBF184694
:100E900070474FEA410C1CF5001F02D2084600F0D3
:100EA0006FBA70B500F0A2F900000089FFF7F6BF35
:100EB0004FF00040A0F58000704700002DE9C041D0
:100EC00030B4DFF8A0C23CEA111418BF3CEA131496
:100ED00000F0EC8081EA03051CEA111444EAD574A1
:100EE00018BF1CEA131500F0C780A4EB05044FF0EF
:100EF000004545EAC12145EAC32341EA505143EA8E
:100F0000525304F17F74994204F500344FEAC02033
:100F10004FEAC22208BF904200F09C804FEA13655E
:100F20000FF24016765D4FEA134506FB05F7C7F151
:100F3000807706FB07F74FEAD737A7FB03687642AF
:100F4000C8F58038A7FB06CE38BFA8F1010807FB1B
:100F500008E64FF0000EA6FB028CE6FB03CEDCF1A8
:100F6000000CCEF1004E38BFAEF1010EA6FB0C58BE
:100F70004FF000074FF00005E6FB0E87A1FB08C607
:100F8000A0FB07CE16EB0E0645F10005E1FB076559
:100F900015F1E04E7EBFA4F580345FEA46066D4150
:100FA00016F1800745F100054FEA17274FEA06665C
:100FB00047EA0567A6F1DE46B6F1805F4FEA1525E0
:100FC0001FD9384624F0010C05EBC471BCF1FE6F4B
:100FD00001EB0C1102D8F0BCBDE8008124425CBFDB
:100FE00001F5801E9EEAC47F02D4F0BCBDE80081FA
:100FF000244238D4F0BCA1F1C041BDE8004100F06A
:1010000043B94FEAD22242EA43524FEAD323A7FB25
:1010100002864FEAD02040EA415007FB03661EEAF1
:101020000E0F4FEAD12105FB026658BFA6EB005612
:10103000B6EB00564FEA520E4EEAC37E18EB0E0E88
:1010400056EB530EBDD518EB02085E417F1C55F1DF
:101050000005B6E74FF480154FF000074FF000068B
:101060004FF00008ADE7F0BC4FF0000001F1C041C7
:1010700001F00041BDE8008111EA0C1F0CEA1315D4
:1010800000D00CE013EA0C1F00F025804FF00000A8
:10109000F0BC81EA030101F00041BDE80081F0BC31
:1010A000BDE8004181EA030100F0EEB8F0BCBDE804
:1010B000004170B500F09AF8097EFC3E00F007B8D8
:1010C00081EA03014FF0000001F00041704781EA1E
:1010D000030100F0D9B8F0BCBDE800414FF00000BA
:1010E00021497047FFFDFBF9F7F5F4F2F0EEEDEB67
:1010F000E9E8E6E4E3E1E0DEDDDBDAD8D7D5D4D316
:10110000D1D0CFCDCCCBCAC8C7C6C5C4C2C1C0BF61
:10111000BEBDBCBBBAB9B8B7B6B5B4B3B2B1B0AF67
:10112000AEADACABAAA9A8A8A7A6A5A4A3A3A2A14B
:10113000A09F9F9E9D9C9C9B9A9999989797969506
:1011400095949393929191908F8F8E8E8D8C8C8BA2
:101150008B8A89898888878786858584848383822A
:10116000828181800000FF070000F87F4FEA115361
:10117000A3F58063D3F11E03A8BFD3F1200C08DBD5
:101180004FF0004242EAC12252EA505232FA03F0D2
:10119000704709420BD4102BC4BF0020704703F5E1
:1011A000787CBCF1FF3F05D04FF0FF3070474FF027
:1011B0000000704770B500F019F800BF4992248014
:1011C00000207047F0E7B0FA80F310FA03F10AD07C
:1011D000C3F11D0303F580634FEA41504FEA035208
:1011E00002EBD12170474FF0000070470EF1020E64
:1011F0002EF0030E5EF8046B364205D4012A43EB51
:10120000030515F5001F12D8012841EB010C1CF550
:10121000001F0CD80ED14FEAD17C15F5001F0CEB46
:101220004C0C0CF1020C08BF4CEBD37C04E04FF0EB
:10123000080C01E04FEAD37C0CEB4C0526FA05F6CE
:1012400006F00706B6F1040C06D20EEB860CBDE8DC
:1012500070404CF0010C6047DFE80CF0090B020213
:101260004FF000414FF00000A1F5002170BD19467C
:101270001046012851EB010418BFD4F5001484BFB7
:10128000002001F0004170BD0808A0F500114FEAF0
:101290003101704743004FEAD30C4FEA3C0C434006
:1012A0001FBF40070CF1605113F0FE4F70471CF058
:1012B000006F03D100200CF0004170470CF0004398
:1012C00043EA507010B540EACC0000F00EF800BFC1
:1012D000000000924FEA0001FFF7D6BF4FF0004137
:1012E0004FF00000A1F5002170470EF1020E2EF024
:1012F000030E5EF8044B244204D44FEA4102B2F1DB
:101300007F4F11D84FEA4003B3F17F4F0CD80ED175
:101310004FEAD07CB2F17F4F0CEB4C0C0CF1020C7D
:1013200008BF4CEBD17C04E04FF0080C01E04FEA21
:10133000D17C0CEB4C0324FA03F404F00704B4F161
:10134000040C06D20EEB840CBDE810404CF0010CEE
:101350006047DFE80CF0070802024FF00040A0F5FC
:10136000800010BD0846420018BFD2F1807288BFCD
:1013700000F0004010BD4FF04070E1EE100A7047E1
:10138000FF2141EAD050C00570470000AC130008AF
:101390000000002034000000C4010008E013000831
:1013A0003400002064060000E0010008007A030A0F
:1013B0000000000000000000010203040607080905
:1013C0000000000000000000000000000102030413
:1013D00001020304060708090000000000000000E5
:040000050800018965
:00000001FF
