:020000040800F2
:1000000098060020290200080D0800088D04000849
:1000100009080008FF0200088D0B0008000000001E
:100020000000000000000000000000005909000866
:1000300003030008000000000F080008490A000838
:10004000430200084302000843020008430200087C
:10005000430200084302000843020008430200086C
:10006000430200084302000843020008430200085C
:10007000430200084302000843020008430200084C
:10008000430200084302000843020008430200083C
:10009000430200084302000843020008430200082C
:1000A000430200084302000843020008430200081C
:1000B000430200084302000843020008430200080C
:1000C00043020008430200084302000843020008FC
:1000D00043020008430200084302000843020008EC
:1000E00043020008430200084302000843020008DC
:1000F00043020008430200084302000843020008CC
:1001000043020008430200084302000843020008BB
:1001100043020008430200084302000843020008AB
:10012000430200084302000843020008430200089B
:10013000430200084302000843020008430200088B
:10014000430200084302000843020008430200087B
:10015000430200084302000843020008430200086B
:10016000430200084302000843020008430200085B
:10017000430200084302000843020008430200084B
:10018000430200084302000800F002F800F03CF8C7
:100190000AA090E8000C82448344AAF10107DA45E2
:1001A00001D100F031F8AFF2090EBAE80F0013F0F8
:1001B000010F18BFFB1A43F0010318476425000024
:1001C00084250000103A24BF78C878C1FAD85207B5
:1001D00024BF30C830C144BF04680C6070470000C1
:1001E0000023002400250026103A28BF78C1FBD840
:1001F000520728BF30C148BF0B6070471FB502F0DF
:10020000C5F91FBD10B510BD00F044F81146FFF749
:10021000F5FF01F0D9FB00F062F803B4FFF7F2FF3D
:1002200003BC00F065F80000094880470948004712
:10023000FEE7FEE7FEE7FEE7FEE7FEE7FEE7FEE796
:10024000FEE7FEE704480549054A064B70470000F3
:10025000510A000889010008980000209806002033
:10026000980200209802002070477047704710B530
:1002700000F008F8006810BD10B5044600F002F860
:10028000046010BD004870473400002000487047EB
:10029000340000207546FFF7F9FFAE4605006946B9
:1002A000534620F00700854618B020B5FFF7CAFF77
:1002B000BDE820404FF000064FF000074FF0000867
:1002C0004FF0000B21F00701AC46ACE8C009ACE8E8
:1002D000C009ACE8C009ACE8C0098D46704710B54C
:1002E0000446AFF300802046BDE81040FFF795BFFD
:1002F00001491820ABBEFEE726000200704700BF90
:10030000FEE77047F0B50A4600210023002400BF35
:100310003DE0012505FA01F3156805EA03049C4256
:1003200034D105684F000326BE40B54305601579FA
:100330004E00B5400668354305601579012D02D0A1
:100340001579022D16D185684F000326BE40B543AE
:10035000856055794E00B5408668354385604568AF
:1003600001268E40B5434560456896798E40B6B209
:1003700035434560C5684F000326BE40B543C560A0
:10038000D5794E00B540C6683543C560491C102973
:10039000BFD3F0BDF0B5002300244D07ED0E02FAE7
:1003A00005F3CE1000F1200555F826504E07F70E44
:1003B0000F26BE40B543CF1000F1200646F8275067
:1003C000CE1000F1200555F8265045EA0304CE1062
:1003D00000F1200545F82640F0BD000000B52DEDE8
:1003E0000C8B81B09FED220AB0EE408A0120214B98
:1003F000032294210090204800F07EF94FF44870C9
:1004000000F05AFB1B49097801F00F0001F074FD60
:1004100041EC1C0B17490978080901F06DFD41EC0E
:100420001D0BB0EE4D1AF0EE6D1A9FED140B00F09F
:10043000C7FBB0EE40BAF0EE60BA53EC1C2B51ECA7
:100440001B0B01F0ADFD41EC1A0B9FED0E0B53ECB5
:10045000102B01F0A5FD41EC190B01F007FB08EE94
:10046000100AB0EE480A01B0BDEC0C8B00BD0000D4
:100470000000000030000020005400400000000098
:10048000000000400AD7A3703D0AE73F00BFFEE727
:1004900021B1028842F48062028004E002884FF6B3
:1004A000FF331A400280704770B5024600240025D1
:1004B00000230020958A138B1B0445EA030626F0CF
:1004C0007F4404EA01068E4201D1012000E00020B1
:1004D00070BD21B1028842F00102028004E002886E
:1004E0004FF6FE731A4002807047000000B587B0D7
:1004F0000121022000F08CF90121022000F088F98E
:100500000121480500F094F90121480500F0A0F907
:1005100000214FF4001000F09BF902208DF8180024
:1005200001208DF81A004020059002208DF8190056
:1005300000208DF81B0005A91748FFF7E3FE0422F1
:1005400006211548FFF726FF042207211248FFF76E
:1005500021FF8020059005A90F48FFF7D3FE00205A
:10056000ADF808004BF6FF70ADF80A000020ADF8BA
:100570000C004FF48060ADF80E000001ADF81000E3
:100580000648019001A9064800F042F801210448FC
:10059000FFF79FFF07B000BD00040240A0860100E6
:1005A0000054004021B1028842F48072028004E0CD
:1005B00002884FF6FF631A400280704721B102881B
:1005C00042F40072028004E002884FF6FF531A40A2
:1005D000028070470CB5024600200023019300936F
:1005E00000920B0F019321F07F41019B1BB1009BF7
:1005F0001433009303E0090C009B18330093009B15
:100600001B680B400BB1012000E000200CBD000076
:100610002DE9FF4704460D460026B1460427DFF8C2
:10062000CC80A6884FF6C0700640684600F020F9DE
:10063000DDF808802E48B8FBF0F01FFA80F946EA92
:100640000906A68020884FF6FE710840208000260B
:100650002849286888420CD828684000B8FBF0F088
:1006600087B2042F00DA04273E4309F101002084F9
:1006700027E0E8884BF6FF71884206D1286800EB36
:100680004000B8FBF0F087B209E0286800EBC00139
:1006900001EB0010B8FBF0F087B247F48047C7F3D6
:1006A0000B0008B947F0010747F4004006434FF438
:1006B000967009FB00F04FF47A7190FBF1F0401C4A
:1006C0002084A683208840F00100208026884FF6F1
:1006D000F5300640A8886989084306432680A88922
:1006E000298908432081BDE8FF87000000127A00B5
:1006F00040420F00A08601002DE9F0478046894660
:1007000015461E46089C002714B90120BDE8F08755
:1007100000BF4FF400314046FFF75CFF0028F8D1DE
:1007200001214046FFF7B4FE01214046FFF73AFFA2
:1007300000BF2C494046FFF7B7FE0028F9D0002241
:100740004946404600F056F800BF27494046FFF7AB
:10075000ABFE0028F9D02946404600F053F800BF10
:100760002149891C4046FFF79FFE0028F8D001214F
:100770004046FFF717FF00BF1A494046FFF794FEB7
:100780000028F9D001224946404600F033F800BF66
:100790001449491C4046FFF787FE0028F8D019E0AD
:1007A000012C07D100214046FFF772FE012140468F
:1007B000FFF704FF00BF0B493F314046FFF774FECF
:1007C0000028F8D0404600F011F8F055781CC7B268
:1007D000601E84B2002CE3D101214046FFF758FE91
:1007E000002093E701000300820007000146088A09
:1007F000C0B2704712B141F0010101E001F0FE0109
:10080000018270470182704700BFFEE77047704762
:1008100029B1064A12680243044B1A6004E0034AF5
:1008200012688243014B1A60704700003038024062
:1008300029B1064A12680243044B1A6004E0034AD5
:1008400012688243014B1A60704700004038024032
:1008500029B1064A12680243044B1A6004E0034AB5
:1008600012688243014B1A60704700002038024032
:10087000F0B5002100220024022500260223324F79
:100880003F6807F00C0121B1042905D0082937D1B0
:1008900005E02E4F076036E02D4F076033E02A4F0A
:1008A0003F1F3F68C7F38056274F3F1F3F6807F041
:1008B0003F036EB1264FB7FBF3F7DFF88CC0ACF106
:1008C000040CDCF800C0CCF3881C07FB0CF40CE033
:1008D0001E4FB7FBF3F7DFF870C0ACF1040CDCF887
:1008E00000C0CCF3881C07FB0CF4174F3F1F3F6878
:1008F000C7F301477F1C7D00B4FBF5F7076002E0FA
:10090000124F076000BF00BF0F4F3F6807F0F001B4
:100910000909104F7A5C0768D74047600A4F3F6863
:1009200007F4E051890A0B4F7A5C4768D74087602B
:10093000054F3F6807F46041490B064F7A5C4768F2
:10094000D740C760F0BD0000083802400024F40022
:1009500000127A001C000020704700000CB5002037
:10096000019000903448006840F4803032490860BB
:1009700000BF3148006800F4003000900198401C2E
:100980000190009818B90198B0F5A04FF1D12A480C
:10099000006800F4003010B10120009001E0002058
:1009A00000900098012846D123484030006840F06C
:1009B00080502149403108602048006840F44040A0
:1009C0001E4908601C48083000681B49083108604F
:1009D0000846006840F4004008600846006840F49B
:1009E000A05008601648091F0860081F006840F002
:1009F0008070091F086000BF0F48006800F0007099
:100A00000028F9D040F205700E4908600A48083005
:100A1000006820F0030008490831086008460068B3
:100A200040F00200086000BF03480830006800F092
:100A30000C000828F8D10CBD0038024000700040BE
:100A400008544007003C024010B500F093F810BD78
:100A500010B51548006840F4700013490860134849
:100A6000006840F001001149086000200F4908317A
:100A700008600E4800680E4908400C4908600D489F
:100A8000091D0860081F006820F48020091F086005
:100A9000002006490C310860FFF760FF4FF000604E
:100AA00001498039086010BD88ED00E0003802403F
:100AB000FFFFF6FE103000240349086000BF024922
:100AC00009680029FBD170472C00002030B525486B
:100AD00000684FF47A72B0FBF2F1481EB0F1807FEB
:100AE00001D301201BE0481E4FF0E0225061501757
:100AF0000F22002807DA13071D0E1B4B00F00F040E
:100B0000241F1D5503E013071C0E184B1C5400BF77
:100B100000204FF0E0229061072010610020F8B122
:100B200000BF00BF00BF00BF00BFBFF34F8F00BFBB
:100B300000BF00BF0C480C38006800F4E0600C49AE
:100B40000843001D08490C39086000BF00BF00BF02
:100B5000BFF34F8F00BF00BF00BF00E000BFFDE745
:100B600030BD00000000002018ED00E000E400E0CF
:100B70000000FA050448006820B103480068401EE0
:100B800001490860704700002C00002000BFFEE70C
:100B900003B401984100009850EAC12018BF042016
:100BA0004A0D18BF40F0010040F2FF72B2EB515FF6
:100BB00008BF40F00200012808BF052002B07047BE
:100BC0002DE9F04D2DED040B2DED0E8B96B0DDE9EA
:100BD0002550279CDDF890A025F0004624F0004821
:100BE000BAF1000F14BF0121002101EB4502FC49BD
:100BF00053184A1093422AD3002814BF012300231C
:100C000003EB44030B44F7498B4220D358EA00011D
:100C10009FEDF59B76D0DFF8D8B35D4503D1BAF1EF
:100C2000000F05D188E0BAF1000F08BF002100D005
:100C3000012101EB450111F5001F08D8002814BF60
:100C40000121002101EB440111F5001F0BD99DED9D
:100C5000261B9DED240B16B0BDEC0E8B04B0BDE839
:100C6000F04D00F069BE0027002DBCBFE14988456A
:100C700021DAE1498845A8BF02271CDAC3451ADCFE
:100C8000DE4901EB2851142908DDC1F1340220FAB4
:100C900002F101FA02F282420DD108E058B9C1F125
:100CA000140228FA02F101FA02F2424503D101F0DE
:100CB0000101C1F1020756EA0A0124D1002C22DA0F
:100CC000002D18BF022F01D0012F0AD00220FFF7FC
:100CD000D3FA16B0BDEC0E8B04B0BDE8F04D00F0B9
:100CE00013BE0220FFF7C8FA00F00EFE51EC100B05
:100CF00000F0AFFE41EC100B16B0BDEC0E8B04B053
:100D0000BDE8F08D18E09FEDBEAB9FEDBF8B0028D6
:100D100071D1B848804522D105F1804010F580108E
:100D200008BFBAF1000F07D0B3450ADC002CA8BFFA
:100D30009DED260BE0DA0DE0B0EE490AF0EE690A0F
:100D4000DAE7002C06DA9DED260B51EC100B00F0D3
:100D500080FE6FE0AE48784490ED000BCCE7D845BC
:100D60004DD1002C48DA2EB186423AD1BAF1000FAB
:100D700042D126E0BAF1000F13D00220FFF77CFA2F
:100D800000F0F6FD8DED020B9DED240B8DED000BBB
:100D900010EE900A039961F31E0003909DED020B83
:100DA000AAE78DED02AB9DED240B1AEE901A10EE22
:100DB000900A8DED000B61F31E0003909DED020B78
:100DC0009AE78DED028B9DED240B18EE901A10EE34
:100DD000900A8DED000B61F31E0003909DED020B58
:100DE0008AE709DA9DED240B51EC190B53EC102B1B
:100DF00000F02AFF1EE020E09DED240B7CE78642F8
:100E00001BDAB4F1804F0DD0A4F10050B0F1FF50C7
:100E100013D1002D11DB9DED240B51EC100B00F0D4
:100E2000E1FD07E09DED240B53EC102B51EC100B72
:100E300000F0C2BC41EC100B5EE79DED240B51ECC1
:100E4000100B00F0B5FDBAF1000FCDE90E0142D153
:100E50009FED710B46B3A6F1E040B0F17F600CD07E
:100E60005E4538D1002D00DAA7B3022F0CBF012058
:100E70004FF0FF3001F040F8DCE7002D01DD002CE1
:100E80000DDA002D01DD002C1FDB002D16DA002C01
:100E900014DB012F08BF9FED620B3FF42DAFB0EEC6
:100EA0004A0AF0EE6A0A27E7022F18BF002D0CD07D
:100EB000012F0AD1002DFFF61FAF06E0002DB8BFAD
:100EC000002C08DA012F3FF417AFB0EE480AF0EE1D
:100ED000680A11E71BE0012000EBE57050EA07010A
:100EE00015D0791EB0EE498AF0EE698A084308BF32
:100EF0009FED4D8B4E480025804570DD4D494E4895
:100F0000884514DDB0420DDB002C19DB2FE00120F9
:100F1000FFF7B2F916B0BDEC0E8B04B0BDE8F04D92
:100F200000F016BDB34502DC002C09DC1FE0864250
:100F300002DA002C1BDA03E05E452BDD002C16DD07
:100F40000220FFF799F900F013FD8DED020B53EC31
:100F50001A2B51EC180B01F023F8CDE9000103998D
:100F6000019861F31E0003909DED020BC4E6022080
:100F7000FFF782F900F00CFD10EE901A18EE900ABF
:100F80008DED020B8DED008B61F31E0003909DED46
:100F9000020BB1E69DED0E0B53EC192B51EC100B2F
:100FA00001F00AFA9FED260BCDE9080153EC102B56
:100FB0009DED080B51EC100B00F0F2FF9FED221B92
:100FC00053EC112B01F020F99DED081B53EC112B74
:100FD00000F0E6FF9FED1E1B53EC112B3CE08CE074
:100FE000FFFF1F00FFFF0F00000000000000F03FA8
:100FF0000000F03F0000F07F0000404301FCFFFFD5
:10100000000000000000F07F000000000000000071
:10101000BE19000000000000000000000000008079
:10102000000000000000F0FF000000000000F0BF22
:101030000000E0410000F043FFFFEF3F0000000030
:10104000000000000000D03F555555555555D53F7F
:10105000000000000000E03F01F0D6F89DED080B15
:1010600041EC1A0B53EC102B51EC100B00F098FFD5
:1010700053EC1A2B00F094FF41EC1A0B9FEDFE0B82
:1010800053EC102B9DED080B51EC100B00F088FF7A
:1010900041EC1B0B9FEDFA0B51EC1A0B53EC102B90
:1010A00000F07EFF41EC1A0B9FEDF70B53EC102B79
:1010B0009DED080B51EC100B00F072FF53EC1A2B56
:1010C00001F07AF941EC1A0B51EC1B0B53EC1A2B83
:1010D00000F0FEFC0690CDE906519DED060B53ECA9
:1010E0001B2B51EC100B01F067F953EC1A2B01F09C
:1010F0008BF841EC100B00F0A1B90020B6F5801F71
:101100000EDA9FEDE30B53EC102B9DED0E0B51EC23
:10111000100B00F045FFCDE90E016FF034000E46D4
:1011200000EB2650A0F2FF37C6F31300DA4940F077
:101130007F6646F040568842D8BF002408DDD74974
:101140008142C8BF012403DC0024A6F580167F1C61
:10115000D348784400EBC4000F9690ED00CB9DED92
:101160000E0B53EC1C2B51EC100B01F025F99DEDEF
:101170000E0B41EC1B0B53EC1C2B51EC100B00F035
:10118000A7FC41EC100B51EC190B53EC102B00F0A9
:101190005BFD41EC1D0B51EC1B0B53EC1D2B00F0C8
:1011A000FFFE41EC1A0BBF488DED10AB7844109553
:1011B00090ED000B4FF0005040EA660000EB8440D9
:1011C0008DED080B00F5002009909DED080B53EC08
:1011D0001C2B51EC100B01F0EFF89DED0E1B53ECA6
:1011E000112B01F011F841EC100B53EC102B9DED7D
:1011F000100B51EC100B00F0D3FE9DED080B41ECF1
:101200001C0B53EC102B9DED100B51EC100B00F050
:10121000C7FE53EC1B2B00F0F7FF53EC1C2B01F027
:10122000CBF853EC1D2B00F0BBFE41EC1C0B53EC38
:101230001A2B51EC1A0B00F0B3FE41EC1B0B9A4831
:101240000621B0EE4B0AF0EE6B0A784400F0E0FAAB
:10125000B0EE401AF0EE601AB0EE41DAF0EE61DA6C
:1012600053EC1B2B51EC1B0B00F09AFE53EC1D2B87
:1012700000F096FE9DED100B41EC1B0B53EC1A2B6E
:1012800051EC100B00F024FC53EC1C2B00F088FEFA
:1012900053EC1B2B00F01CFC9DED100B41EC1B0BC9
:1012A00053EC102B51EC100B00F07AFE41EC1D0BAF
:1012B0009FED7FEB53EC1E2B00F00AFC53EC1B2B35
:1012C00000F006FC0890CDE908519DED080B53ECA9
:1012D0001E2B51EC100B01F06FF853EC1D2B01F09D
:1012E0006BF853EC1B2B00F08FFF9DED080B41ECCE
:1012F0001D0B53EC102B9DED100B51EC100B00F05F
:101300004FFE41EC1B0B53EC1A2B51EC1D0B00F064
:1013100047FE9DED080B41EC1A0B53EC102B51ECE2
:101320001C0B00F03DFE53EC1A2B00F0D1FB41ECFE
:101330001A0B51EC1B0B53EC1A2B00F0C9FB0C9051
:10134000CDE90C519DED0C0B53EC1B2B51EC100B0C
:1013500001F032F853EC1A2B00F056FF41EC1B0B56
:101360009FED550B53EC102B9DED0C0B51EC100B1E
:1013700000F016FE41EC1A0B9FED510B51EC1B0BCC
:1013800053EC102B00F00CFE41EC1B0B9FED4E0BB1
:1013900053EC102B9DED0C0B51EC100B00F000FEEC
:1013A00053EC1B2B00F094FB41EC100B48487844A5
:1013B00000EBC40090ED001B51EC100B53EC112B13
:1013C00000F086FB41EC1B0B384600F095FDCDE9A3
:1013D000080153EC1B2B51EC1A0B00F079FB41EC8C
:1013E000100B3C48784400EBC40090ED00CB51EC6E
:1013F000100B53EC1C2B00F06BFB9DED081B53EC0A
:10140000112B00F065FB0690CDE906519DED080B10
:1014100053EC102B9DED060B51EC100B00F0CCFFA4
:1014200053EC1C2B00F0C8FF53EC1A2B00F0C4FF48
:1014300053EC1B2B00F0E8FE41EC100B9DED261B3E
:1014400053EC102B8DED001B00959DED260B51EC00
:10145000100B00F0A5FD9DED000B41EC1A0B53ECB9
:10146000102B9DED260B51EC100B00F0A5FF9DED10
:10147000061B53EC112B2FE0000000604715F73FCF
:10148000FE822B654715F73F44DF5DF80BAE543EF7
:1014900000000000000040438E9803007AB60B0065
:1014A0003A150000681500007214000000000000EA
:1014B0000000000000000840000000E009C7EE3F07
:1014C000FD033ADC09C7EE3FF5015B14E02F3EBE99
:1014D000FE120000B812000000F062FD53EC1A2B5F
:1014E00000F0F6FA9DED060B41EC1A0B53EC102BB5
:1014F0009DED000B51EC100B00F052FDCDE90C01FD
:101500009DED0C0B51EC1A0B53EC102B00F0E0FA94
:10151000CDE902010C46AA498C422FDB611A08432F
:1015200018D19DED0C0B53EC102B9DED020B51ECE3
:10153000100B00F041FF41EC1B0B9FEDA30B51EC96
:101540001A0B53EC102B00F0C3FA53EC1B2B00F0DA
:1015500025FE2DD20220FEF78FFE00F009FA10EED4
:10156000901A18EE900A8DED020B8DED008B61F351
:101570001E0003909DED020BFFF7BEBB944A24F0C2
:101580000041914214D39349214408437FF4EFACC6
:101590009DED0C0B53EC102B9DED020B51EC100B41
:1015A00000F00AFF53EC1A2B00F0F8FD7FF6DFACD9
:1015B00024F000408849894A002601EB20518242EC
:1015C0002BDA481C4FF4801121FA00F02044844AA1
:1015D000C0F30A517A44A1F2FF3192ED000B814A27
:1015E0008DED080BCA4020EA0202C0F3130040F45C
:1015F0008010C1F1140120FA01F60992002CB8BF45
:1016000076429DED080B53EC102B9DED0C0B51EC2D
:10161000100B00F0D1FECDE90C019DED0C0B51EC4F
:101620001A0B53EC102B00F053FA9FED6F0B089040
:10163000CDE9085153EC102B9DED080B51EC100B2C
:1016400000F0AEFC41EC1B0B9FED690B53EC102B33
:101650009DED080B51EC100B00F0A2FC9DED0C0B66
:1016600041EC1C0B53EC102B9DED080B51EC100BB7
:1016700000F0A2FE53EC1A2B00F0C6FD9FED5E1B9E
:1016800053EC112B00F08CFC53EC1C2B00F020FAD7
:1016900041EC1A0B51EC1B0B53EC1A2B00F018FA0F
:1016A000CDE902019DED020B53EC1B2B51EC100B0D
:1016B00000F082FE53EC1A2B00F0A6FD9DED020B0C
:1016C00041EC1A0B53EC102B51EC100B00F068FCA2
:1016D000CDE908014A489DED080B0521784400F04A
:1016E00097F89DED081B51EC100B53EC112B00F0FB
:1016F00057FC9DED021B53EC112B00F085FDCDE94D
:1017000006019DED020B53EC1A2B51EC100B00F06F
:1017100047FC53EC1A2B00F0DBF99FED3B0B41EC3F
:101720001A0B53EC102B9DED060B51EC100B00F037
:1017300043FE9DED060B41EC1B0B53EC102B9DED76
:10174000020B51EC100B00F02BFC53EC1B2B00F0A8
:101750007BFA53EC1A2B00F02FFE9DED021B53EC8D
:10176000112B00F029FE53EC192B00F04DFDCDE9B3
:10177000020101EB065001150029C8BF039015DCDA
:101780009DED020B324651EC100B00F03BFFFFF7D2
:10179000FFF9042808BF00F0FBF832469DED020B6C
:1017A00051EC100B00F02EFFCDE902019DED020B74
:1017B00051EC180B53EC102B00F0F2FBFFF73ABB87
:1017C0000000904000000000FE822B654715973C0A
:1017D00000CC904000346F3F01FCFFFF0000E03F71
:1017E00040110000FFFF0F0000000000432EE63F05
:1017F000396CA80C615C20BEEF39FAFE422EE63F40
:101800001010000000000000000000000000004078
:1018100070B504462DED028B4D1E00EBC500B0EEF9
:10182000408AF0EE608A90ED000B35F0060017D08C
:1018300053EC182B51EC100B00F0B2FB41EC100BE9
:101840006D1E04EBC50090ED001B51EC100B53EC2A
:10185000112B00F03DF941EC100B35F00600E7D1FB
:10186000022D36D0042D1CD0062D1CBFBDEC028BE2
:1018700070BD53EC182B51EC100B00F091FB94ED64
:101880000A1B53EC112B00F023F953EC182B00F03A
:1018900087FB94ED081B53EC112B00F019F941EC78
:1018A000100B53EC182B51EC100B00F079FB94ED5E
:1018B000061B53EC112B00F00BF953EC182B00F026
:1018C0006FFB94ED040B53EC102B00F001F941EC8D
:1018D000100B53EC182B51EC100B00F061FB94ED46
:1018E000021B53EC112B00F0F3F853EC182B00F013
:1018F00057FB94ED001B53EC112B00F0E9F8BDEC05
:10190000028B41EC100B70BD9FED070B10B553EC33
:10191000102B9FED070B51EC100B00F095F941ECEB
:10192000100B10BD000000000000000000000000CF
:10193000000000000000F03F10B553EC112B51ECFB
:10194000100B00F0C5F841EC100B10BD00000000BA
:101950009FED050B10B553EC102B51EC100B00F064
:1019600073F941EC100B10BD0000000000000000F6
:101970009FED050B10B553EC102B51EC100B00F044
:101980000FFB41EC100B10BD0000000000000070C8
:101990009FED050B10B553EC102B51EC100B00F024
:1019A000FFFA41EC100B10BD000000000000001019
:1019B00082B0CDE9000121F0004001909DED000BC7
:1019C00002B051EC100B7047FFF780F8FEF78EFD68
:1019D00004E0FEF703FD024880ED000AF9E700008D
:1019E0001400002000B52DED048B83B041EC190BE1
:1019F00000F016FC41EC180B18EE100A18EE901AC5
:101A00008DED008B002818BF0120084320F0004016
:101A1000C0F17F6000F1E040C00F14D019EE101A41
:101A200019EE900A8DED009B002918BF0121084393
:101A300020F00040C0F17F6000F1E040C00F04BF23
:101A40000120FEF719FC51EC180B03B0BDEC048B20
:101A500000BD81F00041704780F00040704721F0E8
:101A60000041704720F000407047000021F0004224
:101A7000A2F16052B2F5801F01F0004328BFD2F1FD
:101A80007F6C0BD95FEA001C43EAC20242EB507044
:101A900018BF704728BF20F001007047B2F5801FC3
:101AA000BCBF184670474FEA410C1CF5001F02D21C
:101AB000084600F070BD70B500F01CFB0000008906
:101AC000FFF7F6BF4FF00040A0F580007047000020
:101AD00010B591EA030F48BF83F0004300F174840E
:101AE000841A71EB030C05D2121943EB0C03001B93
:101AF00061EB0C01DFF824E14FEA1154A4EB135C15
:101B00001EEA430F18BF9EEA445F73D023EA0E0318
:101B1000DCF1200E21EA045143F4801332D322FA7F
:101B20000CFE10EB0E0023FA0CFE41EB0E01CCF183
:101B3000200E03FA0EFE10EB0E0051F10001B1F57C
:101B4000801FCCF1200E32D201EB045112FA0EF2BA
:101B5000BDE8104058BF7047401C38BF5FEA4202E2
:101B600018BF7047002814BF20F0010041F10001A8
:101B70004FEA410313F5001F38BF7047A1F1C04180
:101B800000F006BB012A43EB0302ACF1200CDCF1B0
:101B90001F0E32BF4FF0000E23FA0CF310EB0300C0
:101BA00041EB0451B4EB115FD0D0A1EB045101F52E
:101BB000801149085FEA300001EB04510ED350F167
:101BC000000038BF12FA0EFE08D1BDE81040C9E788
:101BD000401C38BF5FEA4202CAD1C3E7BDE81040EB
:101BE0004FEA410313F5001F38BF7047A1F1C04110
:101BF00000F0CEBA9EEA445F08D011EA5E0FBDE85D
:101C0000104004BF01F0004100207047BDE81040C3
:101C100070B500F06FFA00BF64FBBE3E0000E0FF4D
:101C200002494FF0000000F0BBBC00BF0000F87F8D
:101C3000491058BFC1F140415B1058BFC3F1404348
:101C40008B42EFF3008070472DE9C04130B4DFF8DC
:101C5000A0C23CEA111418BF3CEA131400F0EC8057
:101C600081EA03051CEA111444EAD57418BF1CEA82
:101C7000131500F0C780A4EB05044FF0004545EABA
:101C8000C12145EAC32341EA505143EA525304F1CA
:101C90007F74994204F500344FEAC0204FEAC22213
:101CA00008BF904200F09C804FEA13650FF2401687
:101CB000765D4FEA134506FB05F7C7F1807706FB13
:101CC00007F74FEAD737A7FB03687642C8F5803895
:101CD000A7FB06CE38BFA8F1010807FB08E64FF0C6
:101CE000000EA6FB028CE6FB03CEDCF1000CCEF16D
:101CF000004E38BFAEF1010EA6FB0C584FF00007A6
:101D00004FF00005E6FB0E87A1FB08C6A0FB07CE3F
:101D100016EB0E0645F10005E1FB076515F1E04EF7
:101D20007EBFA4F580345FEA46066D4116F1800758
:101D300045F100054FEA17274FEA066647EA0567AF
:101D4000A6F1DE46B6F1805F4FEA15251FD9384669
:101D500024F0010C05EBC471BCF1FE6F01EB0C111A
:101D600002D8F0BCBDE8008124425CBF01F5801EB2
:101D70009EEAC47F02D4F0BCBDE80081244238D47E
:101D8000F0BCA1F1C041BDE8004100F001BA4FEA4A
:101D9000D22242EA43524FEAD323A7FB02864FEAFC
:101DA000D02040EA415007FB03661EEA0E0F4FEABF
:101DB000D12105FB026658BFA6EB0056B6EB0056D4
:101DC0004FEA520E4EEAC37E18EB0E0E56EB530E40
:101DD000BDD518EB02085E417F1C55F10005B6E742
:101DE0004FF480154FF000074FF000064FF0000849
:101DF000ADE7F0BC4FF0000001F1C04101F000413F
:101E0000BDE8008111EA0C1F0CEA131500D00CE0AC
:101E100013EA0C1F00F025804FF00000F0BC81EAAF
:101E2000030101F00041BDE80081F0BCBDE80041C4
:101E300081EA030100F0ACB9F0BCBDE8004170B527
:101E400000F058F9097EFC3E00F007B881EA030172
:101E50004FF0000001F00041704781EA030100F0FB
:101E600097B9F0BCBDE800414FF000002149704730
:101E7000FFFDFBF9F7F5F4F2F0EEEDEBE9E8E6E44F
:101E8000E3E1E0DEDDDBDAD8D7D5D4D3D1D0CFCDD6
:101E9000CCCBCAC8C7C6C5C4C2C1C0BFBEBDBCBB0F
:101EA000BAB9B8B7B6B5B4B3B2B1B0AFAEADACAB0A
:101EB000AAA9A8A8A7A6A5A4A3A3A2A1A09F9F9EE4
:101EC0009D9C9C9B9A999998979796959594939396
:101ED000929191908F8F8E8E8D8C8C8B8B8A89892D
:101EE00088888787868585848483838282818180B0
:101EF0000000FF070000F87F10F0004248BF40429A
:101F0000B0FA80F310FA03F10AD0C3F11D0303F510
:101F100080634FEA415002EB035202EBD12170473C
:101F20004FF000007047000051EA030C17D41CF575
:101F3000801F58BFBCF5801F00F10680994218BF72
:101F4000704708BF9042704707D711F5801F58BFF0
:101F500013F5801F19D499427047894270471CF5C8
:101F6000801F08D5BCF5801FF7D58B4218BF70477E
:101F700008BF824270474FF4001C1CEB410F38BF72
:101F80001CEB430F01D28B42704770B500F0B2F8E2
:101F9000922449004FF000514FF08053FFF748BEA4
:101FA000DFF848C170B51CEA111E1EBF1CEA1315EC
:101FB0009EEA0C0F95EA0C0F00F06F8081EA030493
:101FC00023EA4C134EEAD47E21EA4C1141F48011ED
:101FD00043F48013AE44A1FB024CA0FB0365AEF1B9
:101FE0007F7E361955EB0C05A1FB034C4CF1000329
:101FF000A0FB021C16EB0C06654153F100030942DD
:1020000018BF46F0010613F4007F0BD14FEA0331ED
:102010004FEA0530340341EA155140EA16506FF09B
:1020200003020AE04FEAC3214FEAC520F40241EA65
:10203000555140EA56506FF0020202EB2E4201EB7E
:10204000025585EACE710AD05FEA440C18BF24F02D
:10205000004450F1000041F1000120EAD47040F248
:10206000FE7C624500D270BDA84214BF4FF0804490
:102070004FF04044002E08BF0024BEF1806FA8BF7F
:10208000A1F1C041BDE8704080F282804FF00000B5
:1020900001F1C04101F0004170479EEA0C0F0CEACB
:1020A000131518BF95EA0C0F06D04FF0000081EA17
:1020B000030E0EF0004170BD00F01CF88900013ED7
:1020C00000F007B800F009B84FEA430C5FEA5C5C27
:1020D00008D081EA030100F05BB84FEA410C5FEAE7
:1020E0005C5CF6D14FF00000014970470000FF072B
:1020F0000000F87F0EF1020E2EF0030E5EF8046B66
:10210000364205D4012A43EB030515F5001F12D80A
:10211000012841EB010C1CF5001F0CD80ED14FEA31
:10212000D17C15F5001F0CEB4C0C0CF1020C08BF18
:102130004CEBD37C04E04FF0080C01E04FEAD37C79
:102140000CEB4C0526FA05F606F00706B6F1040C72
:1021500006D20EEB860CBDE870404CF0010C6047D7
:10216000DFE80CF0090B02024FF000414FF00000D5
:10217000A1F5002170BD19461046012851EB01045C
:1021800018BFD4F5001484BF002001F0004170BDD9
:102190000808A0F500114FEA3101704753EA010C1D
:1021A00017D41CF5801F58BFBCF5801F00F10680B6
:1021B0008B4218BF704708BF8242704707D713F59C
:1021C000801F58BF11F5801F19D48B4270479B4266
:1021D00070471CF5801F08D5BCF5801FF7D59942C4
:1021E00018BF704708BF904270474FF4001C1CEBAB
:1021F000430F38BF1CEB410F01D2994270470FB417
:102200000CBC03BCFFF7C1BE91EA030F10B581F00F
:1022100000413FF565AC83F0004300F0D5B8000005
:102220002DE9F04101F5801CBCF5001FC0F2A9802A
:102230004FEA115C21EA0C510CF1FD0C41F48011C4
:102240005FEA5C0C0CF5C07C01D34000494130A42E
:10225000890241EA905187028E0E0A0CA45D04FBAC
:1022600004F602FB06F6C6F14046A4FB0662F60D34
:1022700046EA422606FB06F4A4FB01235242C3F1C0
:10228000404338BF5B1EA6FB02420024E6FB03244A
:10229000D20B42EA4446A6FB0623A1FB02E2A3FBC3
:1022A00007E4E3FB61426442C2F1404E38BFAEF145
:1022B000010EA6FB04234FF00002E6FB0E32A2FB48
:1022C00003463400E2FB6264A1FB06E6A4FB07E8D8
:1022D000E4FB61687642C8F1405838BFA8F10108B4
:1022E000A2FB06E4A3FB08E5E2FB6854A1FB05E6BC
:1022F000A7FB04E8E1FB648618F1200556F100060F
:10230000A809A8F11B08B10908F03F08B8F10A0FA5
:1023100040EA86601CD901EB0C51BDE8F08100BF9A
:10232000FCF5EEE8E2DDD8D3CFCBC7C3C0BDB9B66C
:10233000B4B1AEACA9A7A5A3A19F9D9B9A98969571
:102340009392908F8D8C8B898887868584838281F8
:10235000A0FB006800FB01F208EB4208B8EB8728FD
:1023600007D5341858EB0104D5D5401C51F10001B4
:10237000D1E7341A78EB0104CDD4401E71F100018D
:10238000C9E75FEA4C0C5FEA9C5C0DD105D34FF0C6
:10239000000001F00041BDE8F081BDE8F04170B5FA
:1023A000FFF7A8FE6DDBFFBEBDE8F0414FF0000077
:1023B000004970470000F87F10B591EA030F48BF4D
:1023C00083F000433FF58CAB841A71EB030C07D20A
:1023D00012198CF0004C43EB0C03001B61EB0C0159
:1023E000DFF8A4E14FEA1154A4EB135C1EEA430F9B
:1023F00018BF9EEA445F00F0B08023EA6E035242A9
:1024000021EA0451C3EB6E0338BF5B1EDCF1200EE2
:1024100025D322FA0CFE10EB0E0043FA0CFE41EB22
:102420000E01CCF1200E03FA0EFE10EB0E0051F15E
:102430000001CCF1200E29D412FA0EF201EB045166
:10244000BDE8104058BF7047401C1CBFB2F1004FA0
:10245000704700280CBF491C20F00100704712EBA8
:10246000020E43EB030218BF4FF0010E4EEA420288
:10247000ACF1200CDCF11E0E54D943FA0CFE10EB2B
:102480000E0051F1FF31CCF11E0ED5D50EF1010E2B
:1024900012FA0EFE404141EB010101EB445C5FEAA0
:1024A0005C5C10D910EBDE7001EB045138BFBEF15B
:1024B000004FBDE8104018BF704700280CBF491CF2
:1024C00020F00100704730D24FEAD42C11F50011F2
:1024D00024F400641BD0B1FA81F20B3AA41AA41EB2
:1024E000D2F12003914030FA03F31943904001EBFD
:1024F000CC71002C01EB0451BDE81040A8BF70471F
:1025000001F1C0414FF0000001F000417047B0FA06
:1025100080F310FA03F100D110BDE41A173C48050E
:10252000C90AE4E701EB045110BD491001EB045165
:10253000BDE810404FEA300002E04FF00001704764
:102540004A0008BF0042F8D0B2F5001F28BF70470C
:1025500001F000414FF0000070479EEA445F07D051
:1025600011EA5E0FBDE8104004BF00210020704753
:10257000BDE8104070B5FFF7BDFD00BF40DFF63E7F
:1025800083F00041104670470000E0FF4FF04070BC
:10259000E1EE100A7047FF2141EAD050C0057047B4
:1025A0000CF00F03092B08BF082000F059800A2BFC
:1025B0000BD0082B18BF704708BF1CF0400F0AD083
:1025C0004FF000004FF0000170471CF0400F18BFA3
:1025D0004FF0004070471CF0100F08D020F07043FF
:1025E00000F07F4242EAD3014FEA4370704700F0A7
:1025F000604021F07F4242EA000201F07F4040EA61
:10260000727070474FF0FF0C4CF4E06C1CEA1153F1
:102610001CBF9CEA030C9445C2BFDA4201EB025195
:102620007047002B0DD0BCF1000F0FD0002A01F035
:102630000041A4BF41F0E04141F07F614FF0000054
:10264000704701F000414FF00000704750EA01333D
:102650004FF09B0C18BF4CF0806C7FF4E1AA7047E0
:102660001CF4801F11D01CF4E02F03D06FEACC3192
:10267000490070474FF04050EFF3008222F0704263
:1026800042EA000282F3008870474FF00000704772
:10269000000000000000F03F000000000000F83FD4
:1026A00000000000000000000000004003B8E23F0E
:1026B000000000000000000006D0CF43EBFD4C3EC0
:1026C000033333333333E33FFFAB6FDBB66DDB3FB5
:1026D0004D268F515555D53F01411DA96074D13FFD
:1026E00065DBC9934A86CD3FEF4E454A287ECA3FF7
:1026F0003E5555555555C53F93BDBE166CC166BF79
:102700002CDE25AF6A56113FF16BD2C541BDBBBE71
:10271000D0A4BE726937663E0000000000000000D1
:10272000402700080000002034000000C401000819
:10273000742700083400002064060000E00100084F
:10274000007A030A000000000000000001020304F8
:10275000060708090000000000000000000000005B
:102760000102030401020304060708090000000037
:042770000000000065
:040000050800018965
:00000001FF
