:020000040800F2
:100000008006002029020008550500084D0500085B
:1000100051050008E3020008FD0800080000000088
:10002000000000000000000000000000990500082A
:10003000010400080000000057050008C50600087C
:10004000430200084302000843020008430200087C
:10005000430200084302000843020008430200086C
:10006000430200084302000843020008430200085C
:10007000430200084302000843020008430200084C
:10008000430200084302000843020008430200083C
:10009000430200084302000843020008430200082C
:1000A000430200084302000843020008430200081C
:1000B000430200084302000843020008430200080C
:1000C00043020008430200084302000843020008FC
:1000D00043020008430200084302000843020008EC
:1000E00043020008430200084302000843020008DC
:1000F00043020008430200084302000843020008CC
:1001000043020008430200084302000843020008BB
:1001100043020008430200084302000843020008AB
:10012000430200084302000843020008430200089B
:10013000430200084302000843020008430200088B
:10014000430200084302000843020008430200087B
:10015000430200084302000843020008430200086B
:10016000430200084302000843020008430200085B
:10017000430200084302000843020008430200084B
:10018000430200084302000800F002F800F03CF8C7
:100190000AA090E8000C82448344AAF10107DA45E2
:1001A00001D100F031F8AFF2090EBAE80F0013F0F8
:1001B000010F18BFFB1A43F001031847140C00008D
:1001C000340C0000103A24BF78C878C1FAD852071E
:1001D00024BF30C830C144BF04680C6070470000C1
:1001E0000023002400250026103A28BF78C1FBD840
:1001F000520728BF30C148BF0B6070471FB500F0E1
:10020000DCFD1FBD10B510BD00F031F81146FFF741
:10021000F5FF00F075FB00F04FF803B4FFF7F2FFB5
:1002200003BC00F057F80000094880470948004720
:10023000FEE7FEE7FEE7FEE7FEE7FEE7FEE7FEE796
:10024000FEE7FEE704480549054A064B70470000F3
:10025000CD060008890100088000002080060020EB
:10026000800200208002002070477047704775466A
:1002700000F02CF8AE4605006946534620F0070012
:10028000854618B020B5FFF7DDFFBDE820404FF0F0
:1002900000064FF000074FF000084FF0000B21F070
:1002A0000701AC46ACE8C009ACE8C009ACE8C0093D
:1002B000ACE8C0098D46704710B50446AFF3008026
:1002C0002046BDE81040FFF7A8BF00000048704777
:1002D0002000002001491820ABBEFEE726000200E6
:1002E000704700BFFEE7000070B5002520211348CD
:1002F00000F0CAF900241CE02021104800F0D3F9D6
:10030000002220210D4800F0CDF8022000F0DAFA9A
:1003100020210A4800F0B8F92021084800F0B9F877
:1003200018B10120A0402843C5B23C2000F0CAFA11
:10033000641C082CE0DB284670BD0000000402406D
:1003400010B500240121022000F006F920211048F8
:1003500000F0A9F9002220210D4800F0A3F84FF485
:10036000F07000F0AFFA2021094800F08DF950201C
:1003700000F0A8FA2021064800F08BF808B9012403
:1003800000E0FF244FF4C87000F09CFA204610BD36
:100390000004024070B505462021184800F083F99A
:1003A000002428E00120A040284098B120211348D3
:1003B00000F079F900222021104800F073F80120A4
:1003C00000F080FA20210D4800F05EF93C2000F09A
:1003D00079FA0FE02021094800F065F90022202178
:1003E000064800F05FF83C2000F06CFA202103483A
:1003F00000F04AF9641C082CD4DB70BD00040240F4
:100400007047F0B50A4600210023002400BF3DE0FC
:10041000012505FA01F3156805EA03049C4234D16D
:1004200005684F000326BE40B543056015794E00B0
:10043000B5400668354305601579012D02D0157960
:10044000022D16D185684F000326BE40B543856056
:1004500055794E00B540866835438560456801266C
:100460008E40B5434560456896798E40B6B23543B7
:100470004560C5684F000326BE40B543C560D579C9
:100480004E00B540C6683543C560491C1029BFD32E
:10049000F0BD0246002013690B400BB1012000E0C3
:1004A000002070470AB1018300E0418370470000DB
:1004B00030B52DED068B81B0FFF742FF05460120D8
:1004C00000F038F9CC20FFF765FF4420FFF762FF0A
:1004D0004FF4487000F02EF9FFF732FF0546012077
:1004E00000F028F9CC20FFF755FFBE20FFF752FFA0
:1004F000FFF7FAFE8DF80000FFF7F6FE8DF8010019
:100500009DF801409DF8000040EA042400EE104AE6
:10051000B8EE400A10EE100A00F0DEFB41EC1A0BB8
:100520009FED080B53EC102B00F02AFA41EC190B4D
:1005300000F0F4F908EE100AB0EE480A01B0BDEC84
:10054000068B30BD000000000000304000BFFEE719
:1005500000BFFEE77047704729B1064A12680243A0
:10056000044B1A6004E0034A12688243014B1A608C
:10057000704700003038024029B1064A1268024331
:10058000044B1A6004E0034A12688243014B1A606C
:100590007047000040380240704700000CB5002052
:1005A000019000903448006840F48030324908607F
:1005B00000BF3148006800F4003000900198401CF2
:1005C0000190009818B90198B0F5A04FF1D12A48D0
:1005D000006800F4003010B10120009001E000201C
:1005E00000900098012846D123484030006840F030
:1005F00080502149403108602048006840F4404064
:100600001E4908601C48083000681B490831086012
:100610000846006840F4004008600846006840F45E
:10062000A05008601648091F0860081F006840F0C5
:100630008070091F086000BF0F48006800F000705C
:100640000028F9D040F205700E4908600A480830C9
:10065000006820F003000849083108600846006877
:1006600040F00200086000BF03480830006800F056
:100670000C000828F8D10CBD003802400070004082
:1006800008544007003C02407CB505460C4600205B
:100690008DF80400009401208DF807006946284673
:1006A000FFF7AFFE7CBD7CB505460C4601208DF8FA
:1006B0000400009400208DF8050069462846FFF7E5
:1006C000A0FE7CBD10B500F00DF910BD10B51548A9
:1006D000006840F47000134908601348006840F057
:1006E00001001149086000200F49083108600E48D8
:1006F00000680E4908400C4908600D48091D086053
:10070000081F006820F48020091F086000200649A7
:100710000C310860FFF742FF4FF00060014980395B
:10072000086010BD88ED00E000380240FFFFF6FED3
:10073000103000240349086000BF024909680029FD
:10074000FBD170471C00002030B5254800684FF4ED
:100750007A72B0FBF2F1481EB0F1807F01D3012024
:100760001BE0481E4FF0E022506150170F22002876
:1007700007DA13071D0E1B4B00F00F04241F1D5535
:1007800003E013071C0E184B1C5400BF00204FF051
:10079000E0229061072010610020F8B100BF00BF87
:1007A00000BF00BF00BFBFF34F8F00BF00BF00BF3F
:1007B0000C480C38006800F4E0600C490843001D48
:1007C00008490C39086000BF00BF00BFBFF34F8F5E
:1007D00000BF00BF00BF00E000BFFDE730BD00006C
:1007E0000000002018ED00E000E400E00000FA0541
:1007F0000EB501211020FFF7BFFE4FF6FF700190EC
:100800005320ADF800006946034800F019F80121B3
:10081000014800F003F80EBD0010004021B102882D
:1008200042F00102028004E002884FF6FE731A4093
:10083000028070470146486A704741627047000075
:1008400000220288184B98420ED0184B98420BD0C9
:10085000B0F1804F08D0164B984205D0154B984206
:1008600002D0154B984204D14FF68F731A404B8833
:100870001A43124B984207D0114B984204D04FF6BE
:10088000FF431A400B891A4302804B68C3620B88EE
:100890000385054B984202D0044B984201D18B7AD4
:1008A0000386012383827047000001400004014059
:1008B0000004004000080040000C00400010004010
:1008C0000014004010B5044600210548FFF7B5FFAD
:1008D00000BF0348FFF7AEFFA042FAD310BD0000EF
:1008E000001000400448006820B103480068401E22
:1008F00001490860704700001C00002000BFFEE7AF
:10090000FFF722FFFFF774FF04E0FFF7D1FD024875
:1009100080ED000AF9E700001800002021F00042F5
:10092000A2F16052B2F5801F01F0004328BFD2F15E
:100930007F6C0BD95FEA001C43EAC20242EB5070A5
:1009400018BF704728BF20F001007047B2F5801F24
:10095000BCBF184670474FEA410C1CF5001F02D27D
:10096000084600F02FBA70B500F062F90000008967
:10097000FFF7F6BF4FF00040A0F580007047000081
:100980002DE9C04130B4DFF8A0C23CEA111418BF11
:100990003CEA131400F0EC8081EA03051CEA111410
:1009A00044EAD57418BF1CEA131500F0C780A4EB05
:1009B00005044FF0004545EAC12145EAC32341EA59
:1009C000505143EA525304F17F74994204F50034C4
:1009D0004FEAC0204FEAC22208BF904200F09C803C
:1009E0004FEA13650FF24016765D4FEA134506FB9A
:1009F00005F7C7F1807706FB07F74FEAD737A7FB64
:100A000003687642C8F58038A7FB06CE38BFA8F148
:100A1000010807FB08E64FF0000EA6FB028CE6FB80
:100A200003CEDCF1000CCEF1004E38BFAEF1010E6A
:100A3000A6FB0C584FF000074FF00005E6FB0E87B1
:100A4000A1FB08C6A0FB07CE16EB0E0645F100057C
:100A5000E1FB076515F1E04E7EBFA4F580345FEA47
:100A600046066D4116F1800745F100054FEA17274C
:100A70004FEA066647EA0567A6F1DE46B6F1805FF3
:100A80004FEA15251FD9384624F0010C05EBC47137
:100A9000BCF1FE6F01EB0C1102D8F0BCBDE8008187
:100AA00024425CBF01F5801E9EEAC47F02D4F0BCE4
:100AB000BDE80081244238D4F0BCA1F1C041BDE8BA
:100AC000004100F003B94FEAD22242EA43524FEA12
:100AD000D323A7FB02864FEAD02040EA415007FB10
:100AE00003661EEA0E0F4FEAD12105FB026658BFCE
:100AF000A6EB0056B6EB00564FEA520E4EEAC37E06
:100B000018EB0E0E56EB530EBDD518EB02085E41E6
:100B10007F1C55F10005B6E74FF480154FF0000734
:100B20004FF000064FF00008ADE7F0BC4FF00000BA
:100B300001F1C04101F00041BDE8008111EA0C1F44
:100B40000CEA131500D00CE013EA0C1F00F025800E
:100B50004FF00000F0BC81EA030101F00041BDE864
:100B60000081F0BCBDE8004181EA030100F0AEB8AD
:100B7000F0BCBDE8004170B500F05AF8097EFC3EBB
:100B800000F007B881EA03014FF0000001F00041D6
:100B9000704781EA030100F099B8F0BCBDE800415C
:100BA0004FF0000021497047FFFDFBF9F7F5F4F223
:100BB000F0EEEDEBE9E8E6E4E3E1E0DEDDDBDAD8F8
:100BC000D7D5D4D3D1D0CFCDCCCBCAC8C7C6C5C456
:100BD000C2C1C0BFBEBDBCBBBAB9B8B7B6B5B4B36D
:100BE000B2B1B0AFAEADACABAAA9A8A8A7A6A5A458
:100BF000A3A3A2A1A09F9F9E9D9C9C9B9A9999981C
:100C00009797969595949393929191908F8F8E8EBE
:100C10008D8C8C8B8B8A898988888787868585844B
:100C200084838382828181800000FF070000F87F37
:100C30000EF1020E2EF0030E5EF8046B364205D460
:100C4000012A43EB030515F5001F12D8012841EBDB
:100C5000010C1CF5001F0CD80ED14FEAD17C15F504
:100C6000001F0CEB4C0C0CF1020C08BF4CEBD37CBE
:100C700004E04FF0080C01E04FEAD37C0CEB4C058C
:100C800026FA05F606F00706B6F1040C06D20EEBBE
:100C9000860CBDE870404CF0010C6047DFE80CF0BA
:100CA000090B02024FF000414FF00000A1F50021B6
:100CB00070BD19461046012851EB010418BFD4F548
:100CC000001484BF002001F0004170BD0808A0F5A9
:100CD00000114FEA3101704743004FEAD30C4FEA4D
:100CE0003C0C43401FBF40070CF1605113F0FE4F16
:100CF00070471CF0006F03D100200CF000417047DA
:100D00000CF0004343EA507010B540EACC0000F00C
:100D10000EF800BF000000924FEA0001FFF7D6BFB7
:100D20004FF000414FF00000A1F5002170470EF197
:100D3000020E2EF0030E5EF8044B244204D44FEA58
:100D40004102B2F17F4F11D84FEA4003B3F17F4F18
:100D50000CD80ED14FEAD07CB2F17F4F0CEB4C0C8B
:100D60000CF1020C08BF4CEBD17C04E04FF0080CF6
:100D700001E04FEAD17C0CEB4C0324FA03F404F0BD
:100D80000704B4F1040C06D20EEB840CBDE810404D
:100D90004CF0010C6047DFE80CF0070802024FF04E
:100DA0000040A0F5800010BD0846420018BFD2F1F7
:100DB000807288BF00F0004010BD4FF04070E1EE3F
:100DC000100A7047FF2141EAD050C005704700006B
:100DD000F00D00080000002020000000C401000801
:100DE000100E00082000002060060000E00100084E
:100DF000007A030A00000000000000000102030462
:100E000006070809000000000000000000000000C4
:040000050800018965
:00000001FF
